{
  "_format": "hh-sol-artifact-1",
  "contractName": "ShowUpClub",
  "sourceName": "contracts/ShowUpClub.sol",
  "abi": [
    {
      "inputs": [],
      "stateMutability": "nonpayable",
      "type": "constructor"
    },
    {
      "inputs": [],
      "name": "JourneyDoesNotExist",
      "type": "error"
    },
    {
      "anonymous": false,
      "inputs": [
        {
          "indexed": true,
          "internalType": "address",
          "name": "creator",
          "type": "address"
        },
        {
          "indexed": false,
          "internalType": "uint256",
          "name": "id",
          "type": "uint256"
        }
      ],
      "name": "AttemptCreated",
      "type": "event"
    },
    {
      "anonymous": false,
      "inputs": [
        {
          "indexed": true,
          "internalType": "address",
          "name": "creator",
          "type": "address"
        },
        {
          "indexed": false,
          "internalType": "uint256",
          "name": "id",
          "type": "uint256"
        }
      ],
      "name": "JourneyCreated",
      "type": "event"
    },
    {
      "inputs": [
        {
          "internalType": "uint256",
          "name": "journeyId",
          "type": "uint256"
        }
      ],
      "name": "createAttempt",
      "outputs": [],
      "stateMutability": "nonpayable",
      "type": "function"
    },
    {
      "inputs": [
        {
          "internalType": "enum ShowUpClub.Action",
          "name": "action",
          "type": "uint8"
        },
        {
          "internalType": "enum ShowUpClub.Format",
          "name": "format",
          "type": "uint8"
        },
        {
          "internalType": "uint256",
          "name": "duration",
          "type": "uint256"
        },
        {
          "internalType": "uint256",
          "name": "dailyValue",
          "type": "uint256"
        },
        {
          "internalType": "string",
          "name": "description",
          "type": "string"
        }
      ],
      "name": "createJourney",
      "outputs": [],
      "stateMutability": "nonpayable",
      "type": "function"
    },
    {
      "inputs": [
        {
          "internalType": "uint256",
          "name": "journeyId",
          "type": "uint256"
        },
        {
          "internalType": "uint256",
          "name": "attemptId",
          "type": "uint256"
        }
      ],
      "name": "getAttemptEndDate",
      "outputs": [
        {
          "internalType": "uint256",
          "name": "endDate_",
          "type": "uint256"
        }
      ],
      "stateMutability": "view",
      "type": "function"
    },
    {
      "inputs": [
        {
          "internalType": "uint256",
          "name": "id",
          "type": "uint256"
        }
      ],
      "name": "getJourney",
      "outputs": [
        {
          "components": [
            {
              "internalType": "enum ShowUpClub.Action",
              "name": "action",
              "type": "uint8"
            },
            {
              "internalType": "enum ShowUpClub.Format",
              "name": "format",
              "type": "uint8"
            },
            {
              "internalType": "uint256",
              "name": "duration",
              "type": "uint256"
            },
            {
              "internalType": "uint256",
              "name": "dailyValue",
              "type": "uint256"
            },
            {
              "internalType": "string",
              "name": "description",
              "type": "string"
            },
            {
              "internalType": "address",
              "name": "creator",
              "type": "address"
            }
          ],
          "internalType": "struct ShowUpClub.Journey",
          "name": "journey_",
          "type": "tuple"
        }
      ],
      "stateMutability": "view",
      "type": "function"
    },
    {
      "inputs": [],
      "name": "getJourneyIds",
      "outputs": [
        {
          "internalType": "uint256[]",
          "name": "journeyIds_",
          "type": "uint256[]"
        }
      ],
      "stateMutability": "view",
      "type": "function"
    },
    {
      "inputs": [
        {
          "internalType": "address",
          "name": "creator",
          "type": "address"
        }
      ],
      "name": "getJourneyIdsForUser",
      "outputs": [
        {
          "internalType": "uint256[]",
          "name": "journeyIds_",
          "type": "uint256[]"
        }
      ],
      "stateMutability": "view",
      "type": "function"
    },
    {
      "inputs": [
        {
          "internalType": "uint256",
          "name": "",
          "type": "uint256"
        }
      ],
      "name": "journeys",
      "outputs": [
        {
          "internalType": "enum ShowUpClub.Action",
          "name": "action",
          "type": "uint8"
        },
        {
          "internalType": "enum ShowUpClub.Format",
          "name": "format",
          "type": "uint8"
        },
        {
          "internalType": "uint256",
          "name": "duration",
          "type": "uint256"
        },
        {
          "internalType": "uint256",
          "name": "dailyValue",
          "type": "uint256"
        },
        {
          "internalType": "string",
          "name": "description",
          "type": "string"
        },
        {
          "internalType": "address",
          "name": "creator",
          "type": "address"
        }
      ],
      "stateMutability": "view",
      "type": "function"
    }
  ],
  "bytecode": "0x608060405234801561001057600080fd5b506114e9806100206000396000f3fe608060405234801561001057600080fd5b506004361061007d5760003560e01c8063b54430381161005b578063b5443038146100f1578063c70b1d9914610121578063d38cf74a14610151578063d9fa41f81461016d5761007d565b806324c49283146100825780635b3ddf161461009e5780638df5a9fa146100bc575b600080fd5b61009c60048036038101906100979190610e1d565b61019d565b005b6100a66104cd565b6040516100b391906110fd565b60405180910390f35b6100d660048036038101906100d19190610eaf565b610562565b6040516100e89695949392919061111f565b60405180910390f35b61010b60048036038101906101069190610eaf565b610670565b6040516101189190611187565b60405180910390f35b61013b60048036038101906101369190610ed8565b610688565b60405161014891906111a9565b60405180910390f35b61016b60048036038101906101669190610eaf565b61077c565b005b61018760048036038101906101829190610df4565b6108f4565b60405161019491906110fd565b60405180910390f35b60006040518060c001604052808860058111156101e3577f4e487b7100000000000000000000000000000000000000000000000000000000600052602160045260246000fd5b8152602001876003811115610221577f4e487b7100000000000000000000000000000000000000000000000000000000600052602160045260246000fd5b815260200186815260200185815260200184848080601f016020809104026020016040519081016040528093929190818152602001838380828437600081840152601f19601f8201169050808301925050505050505081526020013373ffffffffffffffffffffffffffffffffffffffff168152509050600081908060018154018082558091505060019003906000526020600020906005020160009091909190915060008201518160000160006101000a81548160ff02191690836005811115610315577f4e487b7100000000000000000000000000000000000000000000000000000000600052602160045260246000fd5b021790555060208201518160000160016101000a81548160ff0219169083600381111561036b577f4e487b7100000000000000000000000000000000000000000000000000000000600052602160045260246000fd5b0217905550604082015181600101556060820151816002015560808201518160030190805190602001906103a0929190610bf7565b5060a08201518160040160006101000a81548173ffffffffffffffffffffffffffffffffffffffff021916908373ffffffffffffffffffffffffffffffffffffffff1602179055505050600160003373ffffffffffffffffffffffffffffffffffffffff1673ffffffffffffffffffffffffffffffffffffffff168152602001908152602001600020600160008054905061043b9190611280565b90806001815401808255809150506001900390600052602060002001600090919091909150558060a0015173ffffffffffffffffffffffffffffffffffffffff167f714e6fb1f17fde5d08dc6e44b3b940f9cf871d4a3eaf9872dd77169463ab32e560016000805490506104af9190611280565b6040516104bc91906111a9565b60405180910390a250505050505050565b6060600160003373ffffffffffffffffffffffffffffffffffffffff1673ffffffffffffffffffffffffffffffffffffffff16815260200190815260200160002080548060200260200160405190810160405280929190818152602001828054801561055857602002820191906000526020600020905b815481526020019060010190808311610544575b5050505050905090565b6000818154811061057257600080fd5b90600052602060002090600502016000915090508060000160009054906101000a900460ff16908060000160019054906101000a900460ff16908060010154908060020154908060030180546105c79061136d565b80601f01602080910402602001604051908101604052809291908181526020018280546105f39061136d565b80156106405780601f1061061557610100808354040283529160200191610640565b820191906000526020600020905b81548152906001019060200180831161062357829003601f168201915b5050505050908060040160009054906101000a900473ffffffffffffffffffffffffffffffffffffffff16905086565b610678610c7d565b6106818261098b565b9050919050565b6000806106948461098b565b905060006002600086815260200190815260200160002084815481106106e3577f4e487b7100000000000000000000000000000000000000000000000000000000600052603260045260246000fd5b9060005260206000209060020201604051806040016040529081600082015481526020016001820160009054906101000a900473ffffffffffffffffffffffffffffffffffffffff1673ffffffffffffffffffffffffffffffffffffffff1673ffffffffffffffffffffffffffffffffffffffff1681525050905081604001518160000151610772919061122a565b9250505092915050565b600181610789919061122a565b60008054905010156107c7576040517f51758b2f00000000000000000000000000000000000000000000000000000000815260040160405180910390fd5b6002600082815260200190815260200160002060405180604001604052804281526020013373ffffffffffffffffffffffffffffffffffffffff1681525090806001815401808255809150506001900390600052602060002090600202016000909190919091506000820151816000015560208201518160010160006101000a81548173ffffffffffffffffffffffffffffffffffffffff021916908373ffffffffffffffffffffffffffffffffffffffff16021790555050503373ffffffffffffffffffffffffffffffffffffffff167fad74d3830d713fa4acb7f94ded55229877f82828e52bca7193d6048b6454063f600160026000858152602001908152602001600020805490506108dc9190611280565b6040516108e991906111a9565b60405180910390a250565b6060600160008373ffffffffffffffffffffffffffffffffffffffff1673ffffffffffffffffffffffffffffffffffffffff16815260200190815260200160002080548060200260200160405190810160405280929190818152602001828054801561097f57602002820191906000526020600020905b81548152602001906001019080831161096b575b50505050509050919050565b610993610c7d565b600082815481106109cd577f4e487b7100000000000000000000000000000000000000000000000000000000600052603260045260246000fd5b90600052602060002090600502016040518060c00160405290816000820160009054906101000a900460ff166005811115610a31577f4e487b7100000000000000000000000000000000000000000000000000000000600052602160045260246000fd5b6005811115610a69577f4e487b7100000000000000000000000000000000000000000000000000000000600052602160045260246000fd5b81526020016000820160019054906101000a900460ff166003811115610ab8577f4e487b7100000000000000000000000000000000000000000000000000000000600052602160045260246000fd5b6003811115610af0577f4e487b7100000000000000000000000000000000000000000000000000000000600052602160045260246000fd5b81526020016001820154815260200160028201548152602001600382018054610b189061136d565b80601f0160208091040260200160405190810160405280929190818152602001828054610b449061136d565b8015610b915780601f10610b6657610100808354040283529160200191610b91565b820191906000526020600020905b815481529060010190602001808311610b7457829003601f168201915b505050505081526020016004820160009054906101000a900473ffffffffffffffffffffffffffffffffffffffff1673ffffffffffffffffffffffffffffffffffffffff1673ffffffffffffffffffffffffffffffffffffffff16815250509050919050565b828054610c039061136d565b90600052602060002090601f016020900481019282610c255760008555610c6c565b82601f10610c3e57805160ff1916838001178555610c6c565b82800160010185558215610c6c579182015b82811115610c6b578251825591602001919060010190610c50565b5b509050610c799190610d39565b5090565b6040518060c0016040528060006005811115610cc2577f4e487b7100000000000000000000000000000000000000000000000000000000600052602160045260246000fd5b815260200160006003811115610d01577f4e487b7100000000000000000000000000000000000000000000000000000000600052602160045260246000fd5b8152602001600081526020016000815260200160608152602001600073ffffffffffffffffffffffffffffffffffffffff1681525090565b5b80821115610d52576000816000905550600101610d3a565b5090565b600081359050610d6581611465565b92915050565b600081359050610d7a8161147c565b92915050565b600081359050610d8f8161148c565b92915050565b60008083601f840112610da757600080fd5b8235905067ffffffffffffffff811115610dc057600080fd5b602083019150836001820283011115610dd857600080fd5b9250929050565b600081359050610dee8161149c565b92915050565b600060208284031215610e0657600080fd5b6000610e1484828501610d56565b91505092915050565b60008060008060008060a08789031215610e3657600080fd5b6000610e4489828a01610d6b565b9650506020610e5589828a01610d80565b9550506040610e6689828a01610ddf565b9450506060610e7789828a01610ddf565b935050608087013567ffffffffffffffff811115610e9457600080fd5b610ea089828a01610d95565b92509250509295509295509295565b600060208284031215610ec157600080fd5b6000610ecf84828501610ddf565b91505092915050565b60008060408385031215610eeb57600080fd5b6000610ef985828601610ddf565b9250506020610f0a85828601610ddf565b9150509250929050565b6000610f2083836110df565b60208301905092915050565b610f35816112b4565b82525050565b610f44816112b4565b82525050565b6000610f55826111d4565b610f5f81856111f7565b9350610f6a836111c4565b8060005b83811015610f9b578151610f828882610f14565b9750610f8d836111ea565b925050600181019050610f6e565b5085935050505092915050565b610fb181611316565b82525050565b610fc081611316565b82525050565b610fcf81611328565b82525050565b610fde81611328565b82525050565b6000610fef826111df565b610ff98185611208565b935061100981856020860161133a565b6110128161142c565b840191505092915050565b6000611028826111df565b6110328185611219565b935061104281856020860161133a565b61104b8161142c565b840191505092915050565b600060c08301600083015161106e6000860182610fa8565b5060208301516110816020860182610fc6565b50604083015161109460408601826110df565b5060608301516110a760608601826110df565b50608083015184820360808601526110bf8282610fe4565b91505060a08301516110d460a0860182610f2c565b508091505092915050565b6110e88161130c565b82525050565b6110f78161130c565b82525050565b600060208201905081810360008301526111178184610f4a565b905092915050565b600060c0820190506111346000830189610fb7565b6111416020830188610fd5565b61114e60408301876110ee565b61115b60608301866110ee565b818103608083015261116d818561101d565b905061117c60a0830184610f3b565b979650505050505050565b600060208201905081810360008301526111a18184611056565b905092915050565b60006020820190506111be60008301846110ee565b92915050565b6000819050602082019050919050565b600081519050919050565b600081519050919050565b6000602082019050919050565b600082825260208201905092915050565b600082825260208201905092915050565b600082825260208201905092915050565b60006112358261130c565b91506112408361130c565b9250827fffffffffffffffffffffffffffffffffffffffffffffffffffffffffffffffff038211156112755761127461139f565b5b828201905092915050565b600061128b8261130c565b91506112968361130c565b9250828210156112a9576112a861139f565b5b828203905092915050565b60006112bf826112ec565b9050919050565b60008190506112d48261143d565b919050565b60008190506112e782611451565b919050565b600073ffffffffffffffffffffffffffffffffffffffff82169050919050565b6000819050919050565b6000611321826112c6565b9050919050565b6000611333826112d9565b9050919050565b60005b8381101561135857808201518184015260208101905061133d565b83811115611367576000848401525b50505050565b6000600282049050600182168061138557607f821691505b60208210811415611399576113986113fd565b5b50919050565b7f4e487b7100000000000000000000000000000000000000000000000000000000600052601160045260246000fd5b7f4e487b7100000000000000000000000000000000000000000000000000000000600052602160045260246000fd5b7f4e487b7100000000000000000000000000000000000000000000000000000000600052602260045260246000fd5b6000601f19601f8301169050919050565b6006811061144e5761144d6113ce565b5b50565b60048110611462576114616113ce565b5b50565b61146e816112b4565b811461147957600080fd5b50565b6006811061148957600080fd5b50565b6004811061149957600080fd5b50565b6114a58161130c565b81146114b057600080fd5b5056fea2646970667358221220204d759d8f57e62ef6d62045ea85c325bec5fbe00a5e0ef1fd58cc356e733a0464736f6c63430008040033",
  "linkReferences": {},
  "deployedLinkReferences": {}
}