{
  "_format": "hh-sol-artifact-1",
  "contractName": "ShowUpClub",
  "sourceName": "contracts/ShowUpClub.sol",
  "abi": [
    {
      "inputs": [],
      "stateMutability": "nonpayable",
      "type": "constructor"
    },
    {
      "inputs": [],
      "name": "JourneyAlreadyCompleted",
      "type": "error"
    },
    {
      "inputs": [],
      "name": "JourneyDoesNotExist",
      "type": "error"
    },
    {
      "inputs": [],
      "name": "JourneyEnded",
      "type": "error"
    },
    {
      "inputs": [],
      "name": "JourneyNotEnded",
      "type": "error"
    },
    {
      "inputs": [],
      "name": "NotCreatorOfJourney",
      "type": "error"
    },
    {
      "anonymous": false,
      "inputs": [
        {
          "indexed": true,
          "internalType": "uint256",
          "name": "id",
          "type": "uint256"
        }
      ],
      "name": "JourneyCompleted",
      "type": "event"
    },
    {
      "anonymous": false,
      "inputs": [
        {
          "indexed": true,
          "internalType": "address",
          "name": "creator",
          "type": "address"
        },
        {
          "indexed": false,
          "internalType": "uint256",
          "name": "id",
          "type": "uint256"
        }
      ],
      "name": "JourneyCreated",
      "type": "event"
    },
    {
      "anonymous": false,
      "inputs": [
        {
          "indexed": true,
          "internalType": "uint256",
          "name": "journeyId",
          "type": "uint256"
        },
        {
          "indexed": false,
          "internalType": "uint256",
          "name": "value",
          "type": "uint256"
        },
        {
          "indexed": false,
          "internalType": "string",
          "name": "note",
          "type": "string"
        }
      ],
      "name": "ShowUp",
      "type": "event"
    },
    {
      "inputs": [
        {
          "internalType": "uint256",
          "name": "journeyId",
          "type": "uint256"
        }
      ],
      "name": "completeJourney",
      "outputs": [],
      "stateMutability": "nonpayable",
      "type": "function"
    },
    {
      "inputs": [
        {
          "internalType": "enum ShowUpClub.Action",
          "name": "action",
          "type": "uint8"
        },
        {
          "internalType": "enum ShowUpClub.Format",
          "name": "format",
          "type": "uint8"
        },
        {
          "internalType": "uint256",
          "name": "duration",
          "type": "uint256"
        },
        {
          "internalType": "uint256",
          "name": "dailyValue",
          "type": "uint256"
        },
        {
          "internalType": "string",
          "name": "description",
          "type": "string"
        },
        {
          "internalType": "address",
          "name": "charity",
          "type": "address"
        }
      ],
      "name": "createJourney",
      "outputs": [],
      "stateMutability": "payable",
      "type": "function"
    },
    {
      "inputs": [
        {
          "internalType": "uint256",
          "name": "id",
          "type": "uint256"
        }
      ],
      "name": "getJourney",
      "outputs": [
        {
          "components": [
            {
              "internalType": "enum ShowUpClub.Action",
              "name": "action",
              "type": "uint8"
            },
            {
              "internalType": "enum ShowUpClub.Format",
              "name": "format",
              "type": "uint8"
            },
            {
              "internalType": "uint256",
              "name": "duration",
              "type": "uint256"
            },
            {
              "internalType": "uint256",
              "name": "dailyValue",
              "type": "uint256"
            },
            {
              "internalType": "string",
              "name": "description",
              "type": "string"
            },
            {
              "internalType": "address",
              "name": "creator",
              "type": "address"
            },
            {
              "internalType": "address",
              "name": "charity",
              "type": "address"
            },
            {
              "internalType": "uint256",
              "name": "startDate",
              "type": "uint256"
            },
            {
              "internalType": "uint256",
              "name": "currentValue",
              "type": "uint256"
            },
            {
              "internalType": "uint256",
              "name": "fundsLocked",
              "type": "uint256"
            },
            {
              "internalType": "bool",
              "name": "completed",
              "type": "bool"
            }
          ],
          "internalType": "struct ShowUpClub.Journey",
          "name": "journey_",
          "type": "tuple"
        }
      ],
      "stateMutability": "view",
      "type": "function"
    },
    {
      "inputs": [],
      "name": "getJourneyIds",
      "outputs": [
        {
          "internalType": "uint256[]",
          "name": "journeyIds_",
          "type": "uint256[]"
        }
      ],
      "stateMutability": "view",
      "type": "function"
    },
    {
      "inputs": [
        {
          "internalType": "address",
          "name": "creator",
          "type": "address"
        }
      ],
      "name": "getJourneyIdsForUser",
      "outputs": [
        {
          "internalType": "uint256[]",
          "name": "journeyIds_",
          "type": "uint256[]"
        }
      ],
      "stateMutability": "view",
      "type": "function"
    },
    {
      "inputs": [
        {
          "internalType": "uint256",
          "name": "",
          "type": "uint256"
        }
      ],
      "name": "journeys",
      "outputs": [
        {
          "internalType": "enum ShowUpClub.Action",
          "name": "action",
          "type": "uint8"
        },
        {
          "internalType": "enum ShowUpClub.Format",
          "name": "format",
          "type": "uint8"
        },
        {
          "internalType": "uint256",
          "name": "duration",
          "type": "uint256"
        },
        {
          "internalType": "uint256",
          "name": "dailyValue",
          "type": "uint256"
        },
        {
          "internalType": "string",
          "name": "description",
          "type": "string"
        },
        {
          "internalType": "address",
          "name": "creator",
          "type": "address"
        },
        {
          "internalType": "address",
          "name": "charity",
          "type": "address"
        },
        {
          "internalType": "uint256",
          "name": "startDate",
          "type": "uint256"
        },
        {
          "internalType": "uint256",
          "name": "currentValue",
          "type": "uint256"
        },
        {
          "internalType": "uint256",
          "name": "fundsLocked",
          "type": "uint256"
        },
        {
          "internalType": "bool",
          "name": "completed",
          "type": "bool"
        }
      ],
      "stateMutability": "view",
      "type": "function"
    },
    {
      "inputs": [
        {
          "internalType": "address",
          "name": "dest",
          "type": "address"
        }
      ],
      "name": "payments",
      "outputs": [
        {
          "internalType": "uint256",
          "name": "",
          "type": "uint256"
        }
      ],
      "stateMutability": "view",
      "type": "function"
    },
    {
      "inputs": [
        {
          "internalType": "uint256",
          "name": "journeyId",
          "type": "uint256"
        },
        {
          "internalType": "uint256",
          "name": "value",
          "type": "uint256"
        },
        {
          "internalType": "string",
          "name": "note",
          "type": "string"
        }
      ],
      "name": "showUp",
      "outputs": [],
      "stateMutability": "nonpayable",
      "type": "function"
    },
    {
      "inputs": [
        {
          "internalType": "address payable",
          "name": "payee",
          "type": "address"
        }
      ],
      "name": "withdrawPayments",
      "outputs": [],
      "stateMutability": "nonpayable",
      "type": "function"
    }
  ],
  "bytecode": "0x60a060405234801561001057600080fd5b5060405161001d90610075565b604051809103906000f080158015610039573d6000803e3d6000fd5b5073ffffffffffffffffffffffffffffffffffffffff1660808173ffffffffffffffffffffffffffffffffffffffff1660601b81525050610082565b610d0980611deb83390190565b60805160601c611d3d6100ae6000396000818161024d015281816108c80152610d980152611d3d6000f3fe6080604052600436106100865760003560e01c80637c30c6b6116100595780637c30c6b6146101245780638df5a9fa1461014d578063b544303814610194578063d9fa41f8146101d1578063e2982c211461020e57610086565b806331b3eb941461008b5780635b3ddf16146100b457806368a73dd0146100df57806369abfa5d146100fb575b600080fd5b34801561009757600080fd5b506100b260048036038101906100ad91906113ca565b61024b565b005b3480156100c057600080fd5b506100c96102d9565b6040516100d69190611837565b60405180910390f35b6100f960048036038101906100f491906113f3565b61036e565b005b34801561010757600080fd5b50610122600480360381019061011d919061149a565b610386565b005b34801561013057600080fd5b5061014b600480360381019061014691906114ec565b610545565b005b34801561015957600080fd5b50610174600480360381019061016f919061149a565b6106bc565b60405161018b9b9a99989796959493929190611859565b60405180910390f35b3480156101a057600080fd5b506101bb60048036038101906101b6919061149a565b610815565b6040516101c8919061190b565b60405180910390f35b3480156101dd57600080fd5b506101f860048036038101906101f391906113a1565b61082d565b6040516102059190611837565b60405180910390f35b34801561021a57600080fd5b50610235600480360381019061023091906113a1565b6108c4565b604051610242919061192d565b60405180910390f35b7f000000000000000000000000000000000000000000000000000000000000000073ffffffffffffffffffffffffffffffffffffffff166351cff8d9826040518263ffffffff1660e01b81526004016102a4919061181c565b600060405180830381600087803b1580156102be57600080fd5b505af11580156102d2573d6000803e3d6000fd5b5050505050565b6060600160003373ffffffffffffffffffffffffffffffffffffffff1673ffffffffffffffffffffffffffffffffffffffff16815260200190815260200160002080548060200260200160405190810160405280929190818152602001828054801561036457602002820191906000526020600020905b815481526020019060010190808311610350575b5050505050905090565b61037d87878787878787610976565b50505050505050565b600061039182610d68565b90504281106103cc576040517f0df9088d00000000000000000000000000000000000000000000000000000000815260040160405180910390fd5b6000808381548110610407577f4e487b7100000000000000000000000000000000000000000000000000000000600052603260045260246000fd5b90600052602060002090600a020190508060090160009054906101000a900460ff1615610460576040517f0d9d5ac600000000000000000000000000000000000000000000000000000000815260040160405180910390fd5b60018160090160006101000a81548160ff0219169083151502179055506000816002015482600101546104939190611a36565b905060008183600701541015905080156104de576104d98360040160009054906101000a900473ffffffffffffffffffffffffffffffffffffffff168460080154610d96565b610511565b6105108360050160009054906101000a900473ffffffffffffffffffffffffffffffffffffffff168460080154610d96565b5b847f59554e552a32c114e5a089a4be2d29479b0f8fdb596321bcc6b8d64ad1f7dffa60405160405180910390a25050505050565b600061055085610d68565b90504281101561058c576040517f68829e5200000000000000000000000000000000000000000000000000000000815260040160405180910390fd5b60008086815481106105c7577f4e487b7100000000000000000000000000000000000000000000000000000000600052603260045260246000fd5b90600052602060002090600a020190503373ffffffffffffffffffffffffffffffffffffffff168160040160009054906101000a900473ffffffffffffffffffffffffffffffffffffffff1673ffffffffffffffffffffffffffffffffffffffff1614610660576040517fa47914c700000000000000000000000000000000000000000000000000000000815260040160405180910390fd5b84816007015461067091906119e0565b8160070181905550857fd80234d13ab205b3bd5d6fd81784bb9594683c5842cbb46ca56e2e3500b6c4308686866040516106ac93929190611948565b60405180910390a2505050505050565b600081815481106106cc57600080fd5b90600052602060002090600a02016000915090508060000160009054906101000a900460ff16908060000160019054906101000a900460ff169080600101549080600201549080600301805461072190611baa565b80601f016020809104026020016040519081016040528092919081815260200182805461074d90611baa565b801561079a5780601f1061076f5761010080835404028352916020019161079a565b820191906000526020600020905b81548152906001019060200180831161077d57829003601f168201915b5050505050908060040160009054906101000a900473ffffffffffffffffffffffffffffffffffffffff16908060050160009054906101000a900473ffffffffffffffffffffffffffffffffffffffff16908060060154908060070154908060080154908060090160009054906101000a900460ff1690508b565b61081d61113e565b61082682610e26565b9050919050565b6060600160008373ffffffffffffffffffffffffffffffffffffffff1673ffffffffffffffffffffffffffffffffffffffff1681526020019081526020016000208054806020026020016040519081016040528092919081815260200182805480156108b857602002820191906000526020600020905b8154815260200190600101908083116108a4575b50505050509050919050565b60007f000000000000000000000000000000000000000000000000000000000000000073ffffffffffffffffffffffffffffffffffffffff1663e3a9db1a836040518263ffffffff1660e01b815260040161091f9190611801565b60206040518083038186803b15801561093757600080fd5b505afa15801561094b573d6000803e3d6000fd5b505050506040513d601f19601f8201168201806040525081019061096f91906114c3565b9050919050565b60006040518061016001604052808960058111156109bd577f4e487b7100000000000000000000000000000000000000000000000000000000600052602160045260246000fd5b81526020018860038111156109fb577f4e487b7100000000000000000000000000000000000000000000000000000000600052602160045260246000fd5b815260200187815260200186815260200185858080601f016020809104026020016040519081016040528093929190818152602001838380828437600081840152601f19601f8201169050808301925050505050505081526020013373ffffffffffffffffffffffffffffffffffffffff1681526020018373ffffffffffffffffffffffffffffffffffffffff1681526020014281526020016000815260200134815260200160001515815250905060008190806001815401808255809150506001900390600052602060002090600a020160009091909190915060008201518160000160006101000a81548160ff02191690836005811115610b27577f4e487b7100000000000000000000000000000000000000000000000000000000600052602160045260246000fd5b021790555060208201518160000160016101000a81548160ff02191690836003811115610b7d577f4e487b7100000000000000000000000000000000000000000000000000000000600052602160045260246000fd5b021790555060408201518160010155606082015181600201556080820151816003019080519060200190610bb2929190611236565b5060a08201518160040160006101000a81548173ffffffffffffffffffffffffffffffffffffffff021916908373ffffffffffffffffffffffffffffffffffffffff16021790555060c08201518160050160006101000a81548173ffffffffffffffffffffffffffffffffffffffff021916908373ffffffffffffffffffffffffffffffffffffffff16021790555060e08201518160060155610100820151816007015561012082015181600801556101408201518160090160006101000a81548160ff0219169083151502179055505050600160003373ffffffffffffffffffffffffffffffffffffffff1673ffffffffffffffffffffffffffffffffffffffff1681526020019081526020016000206001600080549050610cd59190611a90565b90806001815401808255809150506001900390600052602060002001600090919091909150558060a0015173ffffffffffffffffffffffffffffffffffffffff167f714e6fb1f17fde5d08dc6e44b3b940f9cf871d4a3eaf9872dd77169463ab32e56001600080549050610d499190611a90565b604051610d56919061192d565b60405180910390a25050505050505050565b600080610d7483610e26565b9050610d7f81611122565b8160e00151610d8e91906119e0565b915050919050565b7f000000000000000000000000000000000000000000000000000000000000000073ffffffffffffffffffffffffffffffffffffffff1663f340fa0182846040518363ffffffff1660e01b8152600401610df09190611801565b6000604051808303818588803b158015610e0957600080fd5b505af1158015610e1d573d6000803e3d6000fd5b50505050505050565b610e2e61113e565b60008281548110610e68577f4e487b7100000000000000000000000000000000000000000000000000000000600052603260045260246000fd5b90600052602060002090600a0201604051806101600160405290816000820160009054906101000a900460ff166005811115610ecd577f4e487b7100000000000000000000000000000000000000000000000000000000600052602160045260246000fd5b6005811115610f05577f4e487b7100000000000000000000000000000000000000000000000000000000600052602160045260246000fd5b81526020016000820160019054906101000a900460ff166003811115610f54577f4e487b7100000000000000000000000000000000000000000000000000000000600052602160045260246000fd5b6003811115610f8c577f4e487b7100000000000000000000000000000000000000000000000000000000600052602160045260246000fd5b81526020016001820154815260200160028201548152602001600382018054610fb490611baa565b80601f0160208091040260200160405190810160405280929190818152602001828054610fe090611baa565b801561102d5780601f106110025761010080835404028352916020019161102d565b820191906000526020600020905b81548152906001019060200180831161101057829003601f168201915b505050505081526020016004820160009054906101000a900473ffffffffffffffffffffffffffffffffffffffff1673ffffffffffffffffffffffffffffffffffffffff1673ffffffffffffffffffffffffffffffffffffffff1681526020016005820160009054906101000a900473ffffffffffffffffffffffffffffffffffffffff1673ffffffffffffffffffffffffffffffffffffffff1673ffffffffffffffffffffffffffffffffffffffff1681526020016006820154815260200160078201548152602001600882015481526020016009820160009054906101000a900460ff1615151515815250509050919050565b60006201518082604001516111379190611a36565b9050919050565b60405180610160016040528060006005811115611184577f4e487b7100000000000000000000000000000000000000000000000000000000600052602160045260246000fd5b8152602001600060038111156111c3577f4e487b7100000000000000000000000000000000000000000000000000000000600052602160045260246000fd5b8152602001600081526020016000815260200160608152602001600073ffffffffffffffffffffffffffffffffffffffff168152602001600073ffffffffffffffffffffffffffffffffffffffff1681526020016000815260200160008152602001600081526020016000151581525090565b82805461124290611baa565b90600052602060002090601f01602090048101928261126457600085556112ab565b82601f1061127d57805160ff19168380011785556112ab565b828001600101855582156112ab579182015b828111156112aa57825182559160200191906001019061128f565b5b5090506112b891906112bc565b5090565b5b808211156112d55760008160009055506001016112bd565b5090565b6000813590506112e881611ca2565b92915050565b6000813590506112fd81611cb9565b92915050565b60008135905061131281611cd0565b92915050565b60008135905061132781611ce0565b92915050565b60008083601f84011261133f57600080fd5b8235905067ffffffffffffffff81111561135857600080fd5b60208301915083600182028301111561137057600080fd5b9250929050565b60008135905061138681611cf0565b92915050565b60008151905061139b81611cf0565b92915050565b6000602082840312156113b357600080fd5b60006113c1848285016112d9565b91505092915050565b6000602082840312156113dc57600080fd5b60006113ea848285016112ee565b91505092915050565b600080600080600080600060c0888a03121561140e57600080fd5b600061141c8a828b01611303565b975050602061142d8a828b01611318565b965050604061143e8a828b01611377565b955050606061144f8a828b01611377565b945050608088013567ffffffffffffffff81111561146c57600080fd5b6114788a828b0161132d565b935093505060a061148b8a828b016112d9565b91505092959891949750929550565b6000602082840312156114ac57600080fd5b60006114ba84828501611377565b91505092915050565b6000602082840312156114d557600080fd5b60006114e38482850161138c565b91505092915050565b6000806000806060858703121561150257600080fd5b600061151087828801611377565b945050602061152187828801611377565b935050604085013567ffffffffffffffff81111561153e57600080fd5b61154a8782880161132d565b925092505092959194509250565b600061156483836117e3565b60208301905092915050565b61157981611ad6565b82525050565b61158881611ac4565b82525050565b61159781611ac4565b82525050565b60006115a88261198a565b6115b281856119ad565b93506115bd8361197a565b8060005b838110156115ee5781516115d58882611558565b97506115e0836119a0565b9250506001810190506115c1565b5085935050505092915050565b61160481611ae8565b82525050565b61161381611ae8565b82525050565b61162281611b44565b82525050565b61163181611b44565b82525050565b61164081611b56565b82525050565b61164f81611b56565b82525050565b600061166183856119cf565b935061166e838584611b68565b61167783611c69565b840190509392505050565b600061168d82611995565b61169781856119be565b93506116a7818560208601611b77565b6116b081611c69565b840191505092915050565b60006116c682611995565b6116d081856119cf565b93506116e0818560208601611b77565b6116e981611c69565b840191505092915050565b60006101608301600083015161170d6000860182611619565b5060208301516117206020860182611637565b50604083015161173360408601826117e3565b50606083015161174660608601826117e3565b506080830151848203608086015261175e8282611682565b91505060a083015161177360a086018261157f565b5060c083015161178660c086018261157f565b5060e083015161179960e08601826117e3565b506101008301516117ae6101008601826117e3565b506101208301516117c36101208601826117e3565b506101408301516117d86101408601826115fb565b508091505092915050565b6117ec81611b3a565b82525050565b6117fb81611b3a565b82525050565b6000602082019050611816600083018461158e565b92915050565b60006020820190506118316000830184611570565b92915050565b60006020820190508181036000830152611851818461159d565b905092915050565b60006101608201905061186f600083018e611628565b61187c602083018d611646565b611889604083018c6117f2565b611896606083018b6117f2565b81810360808301526118a8818a6116bb565b90506118b760a083018961158e565b6118c460c083018861158e565b6118d160e08301876117f2565b6118df6101008301866117f2565b6118ed6101208301856117f2565b6118fb61014083018461160a565b9c9b505050505050505050505050565b6000602082019050818103600083015261192581846116f4565b905092915050565b600060208201905061194260008301846117f2565b92915050565b600060408201905061195d60008301866117f2565b8181036020830152611970818486611655565b9050949350505050565b6000819050602082019050919050565b600081519050919050565b600081519050919050565b6000602082019050919050565b600082825260208201905092915050565b600082825260208201905092915050565b600082825260208201905092915050565b60006119eb82611b3a565b91506119f683611b3a565b9250827fffffffffffffffffffffffffffffffffffffffffffffffffffffffffffffffff03821115611a2b57611a2a611bdc565b5b828201905092915050565b6000611a4182611b3a565b9150611a4c83611b3a565b9250817fffffffffffffffffffffffffffffffffffffffffffffffffffffffffffffffff0483118215151615611a8557611a84611bdc565b5b828202905092915050565b6000611a9b82611b3a565b9150611aa683611b3a565b925082821015611ab957611ab8611bdc565b5b828203905092915050565b6000611acf82611b1a565b9050919050565b6000611ae182611b1a565b9050919050565b60008115159050919050565b6000819050611b0282611c7a565b919050565b6000819050611b1582611c8e565b919050565b600073ffffffffffffffffffffffffffffffffffffffff82169050919050565b6000819050919050565b6000611b4f82611af4565b9050919050565b6000611b6182611b07565b9050919050565b82818337600083830152505050565b60005b83811015611b95578082015181840152602081019050611b7a565b83811115611ba4576000848401525b50505050565b60006002820490506001821680611bc257607f821691505b60208210811415611bd657611bd5611c3a565b5b50919050565b7f4e487b7100000000000000000000000000000000000000000000000000000000600052601160045260246000fd5b7f4e487b7100000000000000000000000000000000000000000000000000000000600052602160045260246000fd5b7f4e487b7100000000000000000000000000000000000000000000000000000000600052602260045260246000fd5b6000601f19601f8301169050919050565b60068110611c8b57611c8a611c0b565b5b50565b60048110611c9f57611c9e611c0b565b5b50565b611cab81611ac4565b8114611cb657600080fd5b50565b611cc281611ad6565b8114611ccd57600080fd5b50565b60068110611cdd57600080fd5b50565b60048110611ced57600080fd5b50565b611cf981611b3a565b8114611d0457600080fd5b5056fea2646970667358221220b302526678c7658206854cdc8642388ca2136d4833015e302c1167afc152d3f164736f6c63430008040033608060405234801561001057600080fd5b5061002d61002261003260201b60201c565b61003a60201b60201c565b6100fe565b600033905090565b60008060009054906101000a900473ffffffffffffffffffffffffffffffffffffffff169050816000806101000a81548173ffffffffffffffffffffffffffffffffffffffff021916908373ffffffffffffffffffffffffffffffffffffffff1602179055508173ffffffffffffffffffffffffffffffffffffffff168173ffffffffffffffffffffffffffffffffffffffff167f8be0079c531659141344cd1fd0a4f28419497f9722a3daafe3b4186f6b6457e060405160405180910390a35050565b610bfc8061010d6000396000f3fe6080604052600436106100555760003560e01c806351cff8d91461005a578063715018a6146100835780638da5cb5b1461009a578063e3a9db1a146100c5578063f2fde38b14610102578063f340fa011461012b575b600080fd5b34801561006657600080fd5b50610081600480360381019061007c91906107f5565b610147565b005b34801561008f57600080fd5b506100986102c7565b005b3480156100a657600080fd5b506100af61034f565b6040516100bc9190610900565b60405180910390f35b3480156100d157600080fd5b506100ec60048036038101906100e791906107cc565b610378565b6040516100f9919061099b565b60405180910390f35b34801561010e57600080fd5b50610129600480360381019061012491906107cc565b6103c1565b005b610145600480360381019061014091906107cc565b6104b9565b005b61014f6105e2565b73ffffffffffffffffffffffffffffffffffffffff1661016d61034f565b73ffffffffffffffffffffffffffffffffffffffff16146101c3576040517f08c379a00000000000000000000000000000000000000000000000000000000081526004016101ba9061097b565b60405180910390fd5b6000600160008373ffffffffffffffffffffffffffffffffffffffff1673ffffffffffffffffffffffffffffffffffffffff1681526020019081526020016000205490506000600160008473ffffffffffffffffffffffffffffffffffffffff1673ffffffffffffffffffffffffffffffffffffffff16815260200190815260200160002081905550610275818373ffffffffffffffffffffffffffffffffffffffff166105ea90919063ffffffff16565b8173ffffffffffffffffffffffffffffffffffffffff167f7084f5476618d8e60b11ef0d7d3f06914655adb8793e28ff7f018d4c76d505d5826040516102bb919061099b565b60405180910390a25050565b6102cf6105e2565b73ffffffffffffffffffffffffffffffffffffffff166102ed61034f565b73ffffffffffffffffffffffffffffffffffffffff1614610343576040517f08c379a000000000000000000000000000000000000000000000000000000000815260040161033a9061097b565b60405180910390fd5b61034d60006106de565b565b60008060009054906101000a900473ffffffffffffffffffffffffffffffffffffffff16905090565b6000600160008373ffffffffffffffffffffffffffffffffffffffff1673ffffffffffffffffffffffffffffffffffffffff168152602001908152602001600020549050919050565b6103c96105e2565b73ffffffffffffffffffffffffffffffffffffffff166103e761034f565b73ffffffffffffffffffffffffffffffffffffffff161461043d576040517f08c379a00000000000000000000000000000000000000000000000000000000081526004016104349061097b565b60405180910390fd5b600073ffffffffffffffffffffffffffffffffffffffff168173ffffffffffffffffffffffffffffffffffffffff1614156104ad576040517f08c379a00000000000000000000000000000000000000000000000000000000081526004016104a49061091b565b60405180910390fd5b6104b6816106de565b50565b6104c16105e2565b73ffffffffffffffffffffffffffffffffffffffff166104df61034f565b73ffffffffffffffffffffffffffffffffffffffff1614610535576040517f08c379a000000000000000000000000000000000000000000000000000000000815260040161052c9061097b565b60405180910390fd5b600034905080600160008473ffffffffffffffffffffffffffffffffffffffff1673ffffffffffffffffffffffffffffffffffffffff168152602001908152602001600020600082825461058991906109d2565b925050819055508173ffffffffffffffffffffffffffffffffffffffff167f2da466a7b24304f47e87fa2e1e5a81b9831ce54fec19055ce277ca2f39ba42c4826040516105d6919061099b565b60405180910390a25050565b600033905090565b8047101561062d576040517f08c379a00000000000000000000000000000000000000000000000000000000081526004016106249061095b565b60405180910390fd5b60008273ffffffffffffffffffffffffffffffffffffffff1682604051610653906108eb565b60006040518083038185875af1925050503d8060008114610690576040519150601f19603f3d011682016040523d82523d6000602084013e610695565b606091505b50509050806106d9576040517f08c379a00000000000000000000000000000000000000000000000000000000081526004016106d09061093b565b60405180910390fd5b505050565b60008060009054906101000a900473ffffffffffffffffffffffffffffffffffffffff169050816000806101000a81548173ffffffffffffffffffffffffffffffffffffffff021916908373ffffffffffffffffffffffffffffffffffffffff1602179055508173ffffffffffffffffffffffffffffffffffffffff168173ffffffffffffffffffffffffffffffffffffffff167f8be0079c531659141344cd1fd0a4f28419497f9722a3daafe3b4186f6b6457e060405160405180910390a35050565b6000813590506107b181610b98565b92915050565b6000813590506107c681610baf565b92915050565b6000602082840312156107de57600080fd5b60006107ec848285016107a2565b91505092915050565b60006020828403121561080757600080fd5b6000610815848285016107b7565b91505092915050565b61082781610a28565b82525050565b600061083a6026836109c1565b915061084582610aa5565b604082019050919050565b600061085d603a836109c1565b915061086882610af4565b604082019050919050565b6000610880601d836109c1565b915061088b82610b43565b602082019050919050565b60006108a36020836109c1565b91506108ae82610b6c565b602082019050919050565b60006108c66000836109b6565b91506108d182610b95565b600082019050919050565b6108e581610a6c565b82525050565b60006108f6826108b9565b9150819050919050565b6000602082019050610915600083018461081e565b92915050565b600060208201905081810360008301526109348161082d565b9050919050565b6000602082019050818103600083015261095481610850565b9050919050565b6000602082019050818103600083015261097481610873565b9050919050565b6000602082019050818103600083015261099481610896565b9050919050565b60006020820190506109b060008301846108dc565b92915050565b600081905092915050565b600082825260208201905092915050565b60006109dd82610a6c565b91506109e883610a6c565b9250827fffffffffffffffffffffffffffffffffffffffffffffffffffffffffffffffff03821115610a1d57610a1c610a76565b5b828201905092915050565b6000610a3382610a4c565b9050919050565b6000610a4582610a4c565b9050919050565b600073ffffffffffffffffffffffffffffffffffffffff82169050919050565b6000819050919050565b7f4e487b7100000000000000000000000000000000000000000000000000000000600052601160045260246000fd5b7f4f776e61626c653a206e6577206f776e657220697320746865207a65726f206160008201527f6464726573730000000000000000000000000000000000000000000000000000602082015250565b7f416464726573733a20756e61626c6520746f2073656e642076616c75652c207260008201527f6563697069656e74206d61792068617665207265766572746564000000000000602082015250565b7f416464726573733a20696e73756666696369656e742062616c616e6365000000600082015250565b7f4f776e61626c653a2063616c6c6572206973206e6f7420746865206f776e6572600082015250565b50565b610ba181610a28565b8114610bac57600080fd5b50565b610bb881610a3a565b8114610bc357600080fd5b5056fea2646970667358221220b2a6db4c00e57e7ef608d5e81a53c60e6688cd2b85172cc39bb6858c6c6988ec64736f6c63430008040033",
  "linkReferences": {},
  "deployedLinkReferences": {}
}